{
  "contractName": "Handshake",
  "abi": [
    {
      "constant": true,
      "inputs": [],
      "name": "person1ReceivingHandshake",
      "outputs": [
        {
          "name": "",
          "type": "uint256"
        }
      ],
      "payable": false,
      "stateMutability": "view",
      "type": "function"
    },
    {
      "constant": true,
      "inputs": [],
      "name": "person2ReceivingHandshake",
      "outputs": [
        {
          "name": "",
          "type": "uint256"
        }
      ],
      "payable": false,
      "stateMutability": "view",
      "type": "function"
    },
    {
      "constant": true,
      "inputs": [],
      "name": "person1",
      "outputs": [
        {
          "name": "",
          "type": "address"
        }
      ],
      "payable": false,
      "stateMutability": "view",
      "type": "function"
    },
    {
      "constant": true,
      "inputs": [],
      "name": "person1GivingHandshake",
      "outputs": [
        {
          "name": "",
          "type": "uint256"
        }
      ],
      "payable": false,
      "stateMutability": "view",
      "type": "function"
    },
    {
      "constant": true,
      "inputs": [],
      "name": "person2GivingHandshake",
      "outputs": [
        {
          "name": "",
          "type": "uint256"
        }
      ],
      "payable": false,
      "stateMutability": "view",
      "type": "function"
    },
    {
      "constant": true,
      "inputs": [],
      "name": "person2",
      "outputs": [
        {
          "name": "",
          "type": "address"
        }
      ],
      "payable": false,
      "stateMutability": "view",
      "type": "function"
    },
    {
      "inputs": [],
      "payable": false,
      "stateMutability": "nonpayable",
      "type": "constructor"
    },
    {
      "anonymous": false,
      "inputs": [
        {
          "indexed": false,
          "name": "person1",
          "type": "address"
        },
        {
          "indexed": false,
          "name": "person2",
          "type": "address"
        }
      ],
      "name": "ShakeHands",
      "type": "event"
    },
    {
      "constant": false,
      "inputs": [],
      "name": "registerPerson",
      "outputs": [],
      "payable": false,
      "stateMutability": "nonpayable",
      "type": "function"
    },
    {
      "constant": false,
      "inputs": [],
      "name": "handshake",
      "outputs": [],
      "payable": true,
      "stateMutability": "payable",
      "type": "function"
    },
    {
      "constant": false,
      "inputs": [],
      "name": "withdraw",
      "outputs": [],
      "payable": false,
      "stateMutability": "nonpayable",
      "type": "function"
    }
  ],
  "bytecode": "0x608060405234801561001057600080fd5b50336000806101000a81548173ffffffffffffffffffffffffffffffffffffffff021916908373ffffffffffffffffffffffffffffffffffffffff160217905550610745806100606000396000f300608060405260043610610099576000357c0100000000000000000000000000000000000000000000000000000000900463ffffffff16806328af0b551461009e5780632f4978c6146100c95780633ccfd60b146100f457806346cb59c21461010b5780634f9e8d241461016257806354bd5fe81461018d57806366993d66146101b8578063965d84801461020f5780639f4ec5bd14610219575b600080fd5b3480156100aa57600080fd5b506100b3610230565b6040518082815260200191505060405180910390f35b3480156100d557600080fd5b506100de610236565b6040518082815260200191505060405180910390f35b34801561010057600080fd5b5061010961023c565b005b34801561011757600080fd5b506101206103de565b604051808273ffffffffffffffffffffffffffffffffffffffff1673ffffffffffffffffffffffffffffffffffffffff16815260200191505060405180910390f35b34801561016e57600080fd5b50610177610403565b6040518082815260200191505060405180910390f35b34801561019957600080fd5b506101a2610409565b6040518082815260200191505060405180910390f35b3480156101c457600080fd5b506101cd61040f565b604051808273ffffffffffffffffffffffffffffffffffffffff1673ffffffffffffffffffffffffffffffffffffffff16815260200191505060405180910390f35b610217610435565b005b34801561022557600080fd5b5061022e61059f565b005b60035481565b60065481565b6000809054906101000a900473ffffffffffffffffffffffffffffffffffffffff1673ffffffffffffffffffffffffffffffffffffffff163373ffffffffffffffffffffffffffffffffffffffff1614806102e45750600160009054906101000a900473ffffffffffffffffffffffffffffffffffffffff1673ffffffffffffffffffffffffffffffffffffffff163373ffffffffffffffffffffffffffffffffffffffff16145b15156102ef57600080fd5b6000809054906101000a900473ffffffffffffffffffffffffffffffffffffffff1673ffffffffffffffffffffffffffffffffffffffff163373ffffffffffffffffffffffffffffffffffffffff161415610392573373ffffffffffffffffffffffffffffffffffffffff166108fc6004549081150290604051600060405180830381858888f1935050505015801561038c573d6000803e3d6000fd5b506103dc565b3373ffffffffffffffffffffffffffffffffffffffff166108fc6007549081150290604051600060405180830381858888f193505050501580156103da573d6000803e3d6000fd5b505b565b6000809054906101000a900473ffffffffffffffffffffffffffffffffffffffff1681565b60025481565b60055481565b600160009054906101000a900473ffffffffffffffffffffffffffffffffffffffff1681565b6000809054906101000a900473ffffffffffffffffffffffffffffffffffffffff1673ffffffffffffffffffffffffffffffffffffffff163373ffffffffffffffffffffffffffffffffffffffff1614806104dd5750600160009054906101000a900473ffffffffffffffffffffffffffffffffffffffff1673ffffffffffffffffffffffffffffffffffffffff163373ffffffffffffffffffffffffffffffffffffffff16145b15156104e857600080fd5b6000809054906101000a900473ffffffffffffffffffffffffffffffffffffffff1673ffffffffffffffffffffffffffffffffffffffff163373ffffffffffffffffffffffffffffffffffffffff16141561056f5760016002600082825401925050819055506001600660008282540192505081905550346007540160078190555061059d565b6001600560008282540192505081905550600160036000828254019250508190555034600454016004819055505b565b600073ffffffffffffffffffffffffffffffffffffffff16600160009054906101000a900473ffffffffffffffffffffffffffffffffffffffff1673ffffffffffffffffffffffffffffffffffffffff161415156105fc57600080fd5b33600160006101000a81548173ffffffffffffffffffffffffffffffffffffffff021916908373ffffffffffffffffffffffffffffffffffffffff1602179055507f53087df01cd88c5a83b13dcfdce643d30b8d4140cac0856df89f2123fbc1fa816000809054906101000a900473ffffffffffffffffffffffffffffffffffffffff16600160009054906101000a900473ffffffffffffffffffffffffffffffffffffffff16604051808373ffffffffffffffffffffffffffffffffffffffff1673ffffffffffffffffffffffffffffffffffffffff1681526020018273ffffffffffffffffffffffffffffffffffffffff1673ffffffffffffffffffffffffffffffffffffffff1681526020019250505060405180910390a15600a165627a7a72305820ec643043646652aa9185fdc3e528b3d07d014723055d5dc4dd41524d9532bd230029",
  "source": "pragma solidity ^0.4.18;\n\n    /**\n    * Example script for the Ethereum development walkthrough\n    */\n\ncontract Handshake {\n    /**\n    * Our wrestlers\n    */\n\taddress public person1;\n\taddress public person2;\n\n\tuint public person1GivingHandshake;\n\tuint public person1ReceivingHandshake;\n\tuint private person1ReceivedValue;\n\tuint public person2GivingHandshake;\n\tuint public person2ReceivingHandshake;\n\tuint private person2ReceivedValue;\n\n    /**\n    * The logs that will be emitted in every step of the contract's life cycle\n    */\n\tevent ShakeHands(address person1, address person2);\n\n    /**\n    * The contract constructor\n    */\n\tconstructor() public {\n\t\tperson1 = msg.sender;\n\t}\n\n    /**\n    * A second wrestler can register as an opponent\n    */\n\tfunction registerPerson() public {\n        require(person2 == address(0));\n\n        person2 = msg.sender;\n\n        emit ShakeHands(person1, person2);\n    }\n\n    /**\n    * Every round a player can put a sum of ether, if one of the player put in twice or\n    * more the money (in total) than the other did, the first wins\n    */\n    function handshake() public payable {\n    \trequire(msg.sender == person1 || msg.sender == person2);\n\n    \tif(msg.sender == person1) {\n    \t\tperson1GivingHandshake += 1;\n\t\t\tperson2ReceivingHandshake += 1;\n\t\t\tperson2ReceivedValue = person2ReceivedValue + msg.value;\n    \t} else {\n    \t\tperson2GivingHandshake +=1;\n\t\t\tperson1ReceivingHandshake += 1;\n\t\t\tperson1ReceivedValue = person1ReceivedValue + msg.value;\n    \t}\n    }\n\n    /**\n    * The withdraw function, following the withdraw pattern shown and explained here:\n    * http://solidity.readthedocs.io/en/develop/common-patterns.html#withdrawal-from-contracts\n    */\n    function withdraw() public {\n        require(msg.sender == person1 || msg.sender == person2);\n\t\t\n\t\tif(msg.sender == person1) {\n\t\t\tmsg.sender.transfer(person1ReceivedValue);\n\t\t} else {\n\t\t\tmsg.sender.transfer(person2ReceivedValue);\n\t\t}\n    }\n}",
  "sourcePath": "C:\\Users\\Bas\\Dev\\eth-tutorial\\contracts\\Handshake.sol",
  "compiler": {
    "name": "solc",
    "version": "0.4.24+commit.e67f0147.Emscripten.clang"
  },
  "schemaVersion": "2.0.0",
  "updatedAt": "2018-05-30T09:05:29.436Z"
}